:020000040000FA
:060000009DEF00F012006C
:020006000000F8
:08000800060EF66E000EF76E05
:10001000000EF86E00010900F550656F0900F550FB
:10002000666F03E1656701D03DD00900F550606F50
:100030000900F550616F0900F550626F0900090071
:10004000F550E96E0900F550EA6E09000900090053
:10005000F550636F0900F550646F09000900F6CF91
:1000600067F0F7CF68F0F8CF69F060C0F6FF61C0C5
:10007000F7FF62C0F8FF0001635302E1645307E039
:100080000900F550EE6E6307F8E26407F9D767C020
:10009000F6FF68C0F7FF69C0F8FF00016507000EB2
:0600A000665BBFD71200F1
:0A00A600806A816A826A836A846AB4
:1000B000896A8A6A8B6A8C6A8D6AC30E926E936AA9
:1000C0009468F00E956E070E966E0F0EC16E010EBF
:1000D000816E320EE66E76EC00F0E552816A320EE9
:0C00E000E66E76EC00F0E552F2D712005C
:0400EC00FF0EE350D0
:1000F000036EEF0E01D0F30EE76EE72E7DEF00F0FA
:100100000C0E026EE76AE72E83EF00F0022E82EFFC
:0A01100000F0032E7BEF00F0120058
:06011A00000EF36E00EE82
:1001200000F0080E01D81200EA6002D0EE6AFCD797
:0A013000F350E9601200EE6AFCD7FC
:06013A0013EE00F023EEBD
:1001400000F0F86A019C04EC00F0ABEC00F053EC1A
:0601500000F0FBD71200D5
:02015600120095
:020000040030CA
:0100000000FF
:010001000CF2
:0100020000FD
:010003000EEE
:010005008179
:010006008079
:00000001FF
