:020000040000FA
:06000000ACEF01F012005C
:020006000000F8
:080008007BEF01F01200806A99
:10001000816A826A836A846A896A8A6A8B6A8C6A5C
:100020008D6AC30E926E936A9468F00E956E070EF9
:10003000966E0F0EC16EF28EF28CF28A8F0ED56E16
:10004000790ED66E8180640EE66E64EC01F0E552A6
:100050008190640EE66E64EC01F0E552F3D7120075
:10006000D9CFE6FFE1CFD9FF020EE1269550DE6E33
:10007000DD6A956A8490FE0EDB50836E8482010EE9
:10008000E66EBAEC01F0E5528492F00E956E040E25
:10009000E66EBAEC01F0E552DF50956E7C0E9614D8
:1000A000966E020EE15C02E2E16AE552E16EE55213
:1000B000E7CFD9FF1200D9CFE6FFE1CFD9FF020E7B
:1000C000E1269550DE6EDD6A956A8480FE0EDB5077
:1000D000836E8482010EE66EBAEC01F0E5528492E2
:1000E000F00E956E040EE66EBAEC01F0E5528380D8
:1000F000DF50956E020EE15C02E2E16AE552E16ECC
:10010000E552E7CFD9FF1200010EE66EA9DFE552F6
:10011000020EE66E8CEC01F0E5521200819E300E6C
:10012000E66E9EDFE552040EE66E8CEC01F0E552C1
:10013000300EE66E95DFE5520A0EE66EBAEC01F07F
:10014000E552300EE66E8CDFE552380EE66E88DF43
:10015000E552DADF0C0EE66E83DFE552060EE66E40
:100160007FDFE5521200D0DF800EE66E79DFE552C8
:10017000530EE66EA0DFE552690EE66E9CDFE55297
:10018000730EE66E98DFE552740EE66E94DFE5526C
:10019000650EE66E90DFE5526D0EE66E8CDFE55281
:1001A000610EE66E88DFE552200EE66E84DFE552D2
:1001B000440EE66E80DFE552690EE66E7CDFE552A6
:1001C000640EE66E78DFE552610EE66E74DFE5528E
:1001D000740EE66E70DFE552690EE66E6CDFE55276
:1001E000630EE66E68DFE5526F0EE66E64DFE55281
:1001F000C50EE66E35DFE5524D0EE66E5CDFE5526C
:10020000430EE66E58DFE5524C0EE66E54DFE552C3
:10021000410EE66E50DFE552420EE66E4CDFE552CF
:0A022000330EE66E48DFE5521200CF
:06022A00060EF66E000E48
:10023000F76E000EF86E00010900F550656F0900B9
:10024000F550666F03E1656701D03DD00900F550B8
:10025000606F0900F550616F0900F550626F090089
:100260000900F550E96E0900F550EA6E0900090031
:100270000900F550636F0900F550646F090009002B
:10028000F6CF67F0F7CF68F0F8CF69F060C0F6FFFF
:1002900061C0F7FF62C0F8FF0001635302E16453DD
:1002A00007E00900F550EE6E6307F8E26407F9D73E
:1002B00067C0F6FF68C0F7FF69C0F8FF0001650777
:0802C000000E665BBFD71200BF
:0802C800FF0EE350036EEF0E80
:1002D00001D0F30EE76EE72E6BEF01F00C0E026E0D
:1002E000E76AE72E71EF01F0022E70EF01F0032EA6
:0602F00069EF01F01200AD
:0A02F600DACFE4FFE2CFDAFFE652B0
:10030000F284010E000904E0F294790ED66E817237
:08031000E552E5CFDAFF110010
:08031800FF0EE350036E480ED6
:1003200001D04C0EE76EE72EFED7E76AE72EFED728
:08033000032EF7D700001200B4
:08033800000EF36E00EE00F070
:10034000080E01D81200EA6002D0EE6AFCD7F35022
:08035000E9601200EE6AFCD71F
:0803580013EE00F023EE00F0AB
:10036000F86A019C15EC01F0C5EC01F007EC00F017
:04037000FBD71200A5
:0C037400FF0EE350E84E1200000000D025
:0A03800000D000D0E82EFAD71200DA
:02038A0012005F
:020000040030CA
:0100000000FF
:010001000CF2
:0100020000FD
:010003000EEE
:010005008179
:010006008079
:00000001FF
