:020000040000FA
:0600000038EF01F01200D0
:020006000000F8
:08000800060EF66E000EF76E05
:10001000000EF86E00010900F550656F0900F550FB
:10002000666F03E1656701D03DD00900F550606F50
:100030000900F550616F0900F550626F0900090071
:10004000F550E96E0900F550EA6E09000900090053
:10005000F550636F0900F550646F09000900F6CF91
:1000600067F0F7CF68F0F8CF69F060C0F6FF61C0C5
:10007000F7FF62C0F8FF0001635302E1645307E039
:100080000900F550EE6E6307F8E26407F9D767C020
:10009000F6FF68C0F7FF69C0F8FF00016507000EB2
:0600A000665BBFD71200F1
:0A00A600D9CFE6FFDACFE6FFE1CF85
:1000B000D9FFE2CFDAFFAC6AAB6AFD0EDBB0AC88E9
:1000C000DBA202D0AC8CAB8CDBB4AC8EDBA602D056
:1000D000AB8801D0AB8ADBB8AC849E98DBBAAB8628
:1000E000DBAC02D09D8A01D09D9A9E9ADBAE02D0F5
:1000F0009D8801D09D98FB0EDB50AF6EFB0EFC0E71
:10010000DBCF03F003C002F0036A0250B06EAC8A8A
:10011000AB8E949C948EAC50100B04E0AC50800BD2
:1001200001E1948CE552E5CFDAFFE7CFD9FF120069
:10013000D9CFE6FFE1CFD9FF020EE126806A816ABE
:10014000826A836A846A896A8A6A8B6A8C6A8D6A1F
:10015000C30E926E936A9468F00E956E070E966EBB
:100160000F0EC16E190EE66EE66A3C0EE66E53EC9B
:1001700000F0E552E552E5528380DCEC00F0F3CF6D
:10018000DEFFF4CFDDFFACA2FED7DECF02F0DDCF85
:1001900003F0300E0224E66E11EC01F0E552DF5060
:1001A000816EEBD7020EE15C02E2E16AE552E16E9C
:0801B000E552E7CFD9FF120070
:0801B800D9CFE6FFE1CFD9FF2A
:1001C000020EE126DE6ADD6AF00E956E8380839270
:1001D0008394839683A803D0010EDE6EDD6A83AA22
:1001E00003D0050EDE6EDD6A83AC03D0090EDE6E31
:1001F000DD6A83AE03D00B0EDE6EDD6ADECF02F069
:10020000DDCF03F002C0F3FF03C0F4FF020EE15C98
:1002100003E200D0E16AE552E16EE552E7CFD9FF93
:020220001200CA
:0E022200D9CFE6FFDACFE6FFE1CFD9FFE2CF7A
:10023000DAFFACAC04D0AC9000016AB3AC80FD0E28
:10024000DB50AD6EE552E5CFDAFFE7CFD9FF120004
:10025000000EF36E00EE00F0080E01D81200EA6006
:1002600002D0EE6AFCD7F350E9601200EE6AFCD7C8
:1002700013EE00F023EE00F0F86A019C04EC00F0AD
:0C02800046EC01F098EC00F0FBD71200F7
:02028C0012005E
:020000040030CA
:0100000000FF
:010001000CF2
:0100020000FD
:010003000EEE
:010005008179
:010006008079
:00000001FF
